:060000000A128A11FC2F18
:100C8A000030831203138C1A0130080083120313F5
:100C9A008C1E4B2E1A080800831603138601003097
:100CAA0083120313A9000030A8002530A700803062
:100CBA00A6000A128A1110270A128A110A128A1128
:100CCA0045260A128A11003A0319732E0A128A114A
:100CDA004B260A128A118312031386000230FD0082
:100CEA000430FC00BA30FB00FB0B792EFC0B792E8A
:100CFA00FD0B792E0000632E83120313A101F31F4B
:100D0A00932EF009F109F209F309F00A0319F10A1D
:100D1A000319F20A0319F30AA101A10AF71FA42E63
:100D2A00F409F509F609F709F40A0319F50A03198A
:100D3A00F60A0319F70A0130F8007808A10600300C
:100D4A00A5000030A4000030A3000030A200730800
:100D5A007204710470040319F92EA001A00AF31B8E
:100D6A00C42E0130F8000310F00DF10DF20DF30D51
:100D7A00F80BB82E0130F8007808A007B42E01301D
:100D8A00F8000310A20DA30DA40DA50DF80BC62E95
:100D9A0073087702031DDB2E72087602031DDB2E11
:100DAA0071087502031DDB2E70087402031CEC2EF9
:100DBA007008F4027108031C710FF5027208031C13
:100DCA00720FF6027308031C730FF7022214013024
:100DDA000310F30CF20CF10CF00CFF3E031DED2E88
:100DEA000130A002031DC42E21080319072FA209EE
:100DFA00A309A409A509A20A0319A30A0319A40AA3
:100E0A000319A50A2508F3002408F2002308F100B3
:100E1A002208F0000800831203132608AA002708F4
:100E2A00AB002808AC002908AD0006300310AA0D53
:100E3A00AB0DAC0DAD0DFF3E031D1B2F2D08F300AE
:100E4A002C08F2002B08F1002A08F0000030AE004E
:100E5A001230AF007A30B0000030B1002608B2007C
:100E6A002708B3002808B4002908B5000630031083
:100E7A00B20DB30DB40DB50DFF3E031D3C2FB209E3
:100E8A00B309B409B509B20A0319B30A0319B40AB2
:100E9A000319B50A3208AE0733080318330F562F61
:100EAA00572FAF0734080318340F5C2F5D2FB00794
:100EBA0035080318350AB1073108F7003008F6007B
:100ECA002F08F5002E08F4000A128A1181260A1248
:100EDA008A117108FA01FA077008F901F907013055
:100EEA007A02003003197902031CE22F83120313DA
:100EFA002608AA002708AB002808AC002908AD007C
:100F0A0004300310AA0DAB0DAC0DAD0DFF3E031D51
:100F1A00862F2D08F3002C08F2002B08F1002A086E
:100F2A00F0000030AE001230AF007A30B00000306E
:100F3A00B1002608B2002708B3002808B40029081F
:100F4A00B50004300310B20DB30DB40DB50DFF3E5C
:100F5A00031DA72FB209B309B409B509B20A0319C7
:100F6A00B30A0319B40A0319B50A3208AE073308DB
:100F7A000318330FC12FC22FAF0734080318340FD9
:100F8A00C72FC82FB00735080318350AB10731082B
:100F9A00F7003008F6002F08F5002E08F4000A12B0
:100FAA008A1181260A128A117108FA01FA07700851
:100FBA00F901F90783160313181501307A02003074
:100FCA000319790203180800790883160313990094
:100FDA001812831203139817831603138717071718
:100FEA008312031318168316031398160800830135
:060FFA000A128A11512EBB
:02400E007AFF37
:00000001FF
