:060000000A128A11122809
:10000800FE00030EF2000408F3000A08F40083124D
:1000180003137F08F5000A128A11A3280A128A110D
:100028001528F6018313203084003C300A128A1107
:100038000B2183010A128A1121280A128A11F7203A
:100048000A128A110A128A1113210A128A110A1233
:100058008A111A210A128A118312031306101A3000
:100068003A063B04031D3028C201C3014308803A05
:10007800FF0080307F02031D43281A304202031814
:100088007A28831203134208203E84008313000851
:10009800013A031D5128313058284208203E840077
:1000A8008008031D592830309900831603139816C9
:1000B800413083120313C100EE30C000C00B622828
:1000C800C10B62280000013083120313C207031812
:1000D800C30A0030C3074308803AFF0080307F021C
:1000E800031D78281A304202031C45280A3083125F
:1000F80003139900831603139816413083120313D0
:10010800C100EE30C000C00B8728C10B8728000053
:100118000D30831203139900831603139816413088
:1001280083120313C100EE30C000C00B9928C10B25
:100138009928000083120313BA01BB0130288C1ED2
:10014800BA281A08F0007008F60076089900831695
:10015800031398168312031386144130F100EE300E
:10016800F000F00BB528F10BB52800000B1CEA28AD
:100178000030831203133B021A3003193A020318A2
:10018800EA28061E861ED4283A08203E84008313D7
:100198008001CF280614061AE328861ACE28E328F9
:1001A800061A861AEA283A08203E8400831380013A
:1001B800800ADF280614061EE328861EDE28013082
:1001C800BA070318BB0A0030BB070B107508831267
:1001D8000313FF0074088A0073088400720E8300FA
:1001E800FE0E7E0E09008316031318154030990081
:1001F8001812831203139817831603138717071708
:100208008312031318168316031398160800640044
:100218008001840A04060319003404060C298B178C
:100228000B17831603138C168B15080030308316B2
:08023800031386008113080086
:02400E007EFD35
:00000001FF
