:060000000A128A11122809
:10000800FE00030EF2000408F3000A08F40083124D
:1000180003137F08F5000A128A11E0280A128A11D0
:100028001528F601F701F801F9018313203084003F
:100038003C300A128A1118210A128A110A128A11EE
:1000480026210A128A11FA000A128A112721FB00B6
:1000580083010A128A1130280A128A1104210A120D
:100068008A110A128A1120210A128A118312031393
:100078000610061E4128861A72283B083A040319FE
:100088006A287228061E861E55283A08203E8400D3
:100098008313800150280614061A6428861A4F28EC
:1000A8006428061A861A6A283A08203E84008313B0
:1000B8008001800A60280614061E6428861E5F28B0
:1000C8000130BA070318BB0A0030BB0700303B02F7
:1000D8001A3003193A02031C462806101A303A0649
:1000E8003B04031D3A28BA01BB01C201C3014308FE
:1000F800803AFF0080307F02031D84281A304202B4
:100108000318BB28831203134208203E840083137C
:100118000008013A031D9228313099284208203EF0
:1001280084008008031D9A28303099008316031331
:100138009816413083120313C100EE30C000C00B83
:10014800A328C10BA3280000013083120313C207A0
:100158000318C30A0030C3074308803AFF00803001
:100168007F02031DB9281A304202031C86280A3070
:1001780083120313990083160313981641308312D0
:100188000313C100EE30C000C00BC828C10BC8283B
:1001980000000D3083120313990083160313981679
:1001A800413083120313C100EE30C000C00BDA28BF
:1001B800C10BDA2800003A288C1EF7281A08F0002C
:1001C8007008F900790899008316031398168312AA
:1001D800031386144130F100EE30F000F00BF228E2
:1001E800F10BF2280000750883120313FF0074084E
:1001F8008A0073088400720E8300FE0E7E0E0900CA
:10020800831603131815403099001812831203132C
:1002180098178316031387170717831203131816E3
:10022800831603139816080064008001840A0406E4
:100238000319003404061929303083160313860085
:080248008113080008340034A2
:02400E007EFD35
:00000001FF
